:100000000C9463000C948B000C948B000C948B006C
:100010000C948B000C948B000C948B000C94AB090B
:100020000C948B000C948B000C948B000C948B0024
:100030000C948B000C948B000C948B000C948B0014
:100040000C94070A0C948B000C948B000C948B007E
:100050000C948B000C948B000C948B000C948B00F4
:100060000C948B000C948B000000000023002600F1
:10007000290000000008000201000003040700003E
:100080000000000000000200000000250028002BF6
:100090000000000000240027002A000404040404D7
:1000A0000404040202020202020303030303030125
:1000B00002040810204080010204081020010204FC
:1000C00008102000F80A11241FBECFEFD8E0DEBFD1
:1000D000CDBF11E0A0E0B1E0ECEFFAE102C0059085
:1000E0000D92A437B107D9F722E0A4E7B1E001C02F
:1000F0001D92A037B207E1F710E0C3E6D0E004C0DC
:100100002197FE010E94760DC236D107C9F70E94E1
:10011000510A0C947C0D0C94000090E0FC01E15518
:10012000FF4F249185569F4FFC018491882399F0BD
:1001300090E0880F991FFC01EF56FF4FA591B491F5
:10014000FC01E957FF4F859194918FB7F894EC919A
:10015000E22BEC938FBF08954F925F926F927F9244
:100160008F929F92AF92BF92CF92DF92EF92FF92C7
:100170000F931F93CF93DF9300D000D01F92CDB782
:10018000DEB78C012A013B01809104018730C9F060
:100190008F3F09F47EC00F900F900F900F900F903B
:1001A000DF91CF911F910F91FF90EF90DF90CF9053
:1001B000BF90AF909F908F907F906F905F904F9087
:1001C0000895E6E8F0E084918D8387FDE4CF87E031
:1001D0000E948D008D81882321F09D81923009F04D
:1001E0005BC14801B12CA12C60E072E18AE790E08C
:1001F000A50198010E94BA0B29833A834B835C8343
:1002000069017A0181E0C81AD108E108F1089FEF7D
:10021000C916D104E104F10409F00CF412C160E440
:1002200072E48FE090E0A50198010E94BA0B690189
:100230007A0181E0C81AD108E108F1089D81923065
:1002400009F097C08FEFC816D104E104F10409F05A
:100250000CF4DCC160E970ED83E090E0A501980149
:100260000E94BA0B69017A0191E0C91AD108E1082C
:10027000F1088FEFC816D104E104F10411F00CF07D
:10028000A2C183E09091B100987F892B8093B10047
:10029000E0C087E080930401E6E8F0E094919D835C
:1002A0009F3F09F478CF913021F150F0923009F45A
:1002B0003EC08D8187FD6FCF87E00E948D008DCF7E
:1002C00014BC15BC84B5826084BD85B5816085BDD4
:1002D000E2EAF0E0E491F0E0EE0FFF1FE957FF4F94
:1002E00085919491E6EBF0E0E491E0934B021D825E
:1002F0006ECF109280001092810080918100886002
:100300008093810080918100816080938100E2EA86
:10031000F0E0E491F0E0EE0FFF1FE957FF4F859109
:100320009491E6EBF0E0E491E0934A0250CF109212
:10033000B0001092B1008091B00082608093B00054
:100340008091B10081608093B100E2EAF0E0E49135
:10035000F0E0EE0FFF1FE957FF4F859194919093C6
:10036000490280934802E6EBF0E0E491E093470213
:100370002ECF9FEFC916D104E104F10409F00CF46B
:1003800089C068E478EE81E090E0A50198010E94C0
:10039000BA0B69017A0181E0C81AD108E108F108B5
:1003A0009D81992309F428C19FEFC916D104E10466
:1003B000F10409F00CF41EC162E17AE780E090E0FC
:1003C000A50194010E94BA0B69017A0181E0C81A63
:1003D000D108E108F1089D81992309F4EBC08FEF62
:1003E000C816D104E104F10411F008F0BFC086E0A2
:1003F00049CF64E274EF80E090E0A50194010E948F
:10040000BA0B69017A0181E0C81AD108E108F10844
:1004100085E09FEFC916D104E104F10409F008F466
:1004200031CF62E17AE780E090E0A50194010E947B
:10043000BA0B69017A0191E0C91AD108E108F10803
:10044000CECF81E09D8191111DCF95B5987F892BED
:1004500085BD2FEF3FEFA9014114510461047104E0
:1004600009F043C09D81913009F45EC0923009F4D7
:100470006DC0911190CEC7BC2093540230935502A9
:10048000409356025093570280916E008260809391
:100490006E0081CE82E0D6CFB12CA12C60E072E15B
:1004A0008AE790E0A50198010E94BA0B69017A01E0
:1004B00081E0C81AD108E108F108C114D10491E023
:1004C000E906F10404F591E08D81813011F6809107
:1004D0008100887F892B809381002FEF3FEFA90156
:1004E0004114510461047104F9F0D801AA0FBB1F33
:1004F000A30192010E94D90B28EE33E040E050E0C6
:100500000E94EC0BAFCF68E478EE81E090E0A501AB
:1005100098010E94BA0B69017A0181E0C81AD108DA
:10052000E108F10893E0D0CFD0928900C092880012
:100530002093500230935102409352025093530241
:1005400080916F00826080936F0025CEC092B300CF
:1005500020934C0230934D0240934E0250934F0231
:100560008091700082608093700015CEC980DA801F
:10057000EB80FC809AE0F594E794D794C7949A9521
:10058000D1F791E0C91AD108E108F10887E07ACEE5
:10059000C980DA80EB80FC808AE0F594E794D794F8
:1005A000C7948A95D1F791E0C91AD108E108F108FA
:1005B00085E04BCF8FEFC816D104E104F10409F0B8
:1005C00038F784E042CF68E478EE81E090E0A5015E
:1005D00098010E94BA0B69017A0191E0C91AD10809
:1005E000E108F1088FEFC816D104E104F10411F01D
:1005F0000CF0FFCE84E046CE8FEFC816D104E104A4
:10060000F10411F00CF0D8CE83E01FCF82E03ACE97
:10061000AF92BF92CF92DF92EF92FF920F931F9310
:10062000CF93DF936C017B018B01040F151FEB014E
:100630005E01AE18BF08C017D10759F06991D60105
:10064000ED91FC910190F081E02DC6010995892B77
:1006500079F7C501DF91CF911F910F91FF90EF9036
:10066000DF90CF90BF90AF900895833081F028F451
:10067000813099F08230A9F008958730A9F0883050
:10068000C9F08430B1F4809180008F7D03C08091E7
:1006900080008F7780938000089584B58F7784BD24
:1006A000089584B58F7DFBCF8091B0008F778093C4
:1006B000B00008958091B0008F7DF9CFCF93DF9384
:1006C000282F30E0F901EE58FF4F8491F901E155F0
:1006D000FF4FD491F901E556FF4FC491CC23A1F00F
:1006E00081110E943503EC2FF0E0EE0FFF1FE85957
:1006F000FF4FA591B491EC91ED2381E090E009F4D6
:1007000080E0DF91CF91089580E090E0FACF1F93D1
:10071000CF93DF93282F30E0F901EE58FF4F8491FB
:10072000F901E155FF4FD491F901E556FF4FC4910E
:10073000CC23A9F0162F81110E943503EC2FF0E095
:10074000EE0FFF1FE957FF4FA591B4918FB7F894B3
:10075000EC91111108C0D095DE23DC938FBFDF919F
:10076000CF911F910895DE2BF8CF9091040189134A
:100770000BC0E6E8F0E0E4919FEF90930401E130D4
:1007800049F028F0E23061F060E00C9487031092A9
:100790006E00FACF90916F009D7F90936F00F4CF21
:1007A000909170009D7F9093700091E09093B000C5
:1007B0009091B100987F94609093B1001092B30033
:1007C000E3CF3FB7F8948091DF019091E001A091D1
:1007D000E101B091E20126B5A89B05C02F3F19F0B9
:1007E0000196A11DB11D3FBFBA2FA92F982F8827B1
:1007F000BC01CD01620F711D811D911D42E0660F8C
:10080000771F881F991F4A95D1F708958F929F925D
:10081000AF92BF92CF92DF92EF92FF926B017C0179
:100820000E94E1034B015C01C114D104E104F10415
:10083000B9F00E94E103681979098A099B09683EA9
:1008400073408105910580F321E0C21AD108E108C7
:10085000F10888EE880E83E0981EA11CB11CE4CF3D
:10086000FF90EF90DF90CF90BF90AF909F908F90D0
:100870000895089590E080E0089560E083E00E948C
:10088000870360E084E00E94870360E085E00E94C7
:10089000870360E082E00E9487036CE271E080E001
:1008A00090E00C9406048F929F92AF92BF920F93A8
:1008B0001F93CF93DF93CDB7DEB7A1970FB6F89410
:1008C000DEBF0FBECDBF19A2423008F44AE08E0150
:1008D0000F5D1F4F842E912CB12CA12CA5019401EA
:1008E0000E94EC0BE62FB901CA01EA3044F5E05D45
:1008F000D801EE938D01232B242B252B79F790E043
:1009000080E0109769F0FD0101900020E9F7319730
:10091000AF014A1B5B0BBD0188E592E00E94080312
:10092000A1960FB6F894DEBF0FBECDBFDF91CF9179
:100930001F910F91BF90AF909F908F900895E95CA9
:10094000D7CFFC0101900020E9F73197AF01481B98
:10095000590BBC0188E592E00C940803CF93DF9318
:10096000EC0160E08E810E94870361E08E810E942D
:10097000870360E08E810E9487038BE891E00197F6
:10098000F1F7DF91CF910895CF92DF92EF92FF922E
:100990000F931F93CF93DF936C017C0187E0E80EE8
:1009A000F11CD0E0C0E0062F10E0B8010C2E02C010
:1009B000759567950A94E2F76170F70181917F015F
:1009C0000E9487032196C430D10579F7C601DF91D3
:1009D000CF911F910F91FF90EF90DF90CF900C94EB
:1009E000AE04CF92DF92EF92FF920F931F93CF93BB
:1009F000DF93EC01F62E642F8C810E9487038D819A
:100A00008F3F19F060E00E9487030F2D10E08F8563
:100A100084FF25C06E0187E0C80ED11CF12CE12CAB
:100A2000B8010E2C02C0759567950A94E2F76170C3
:100A3000F60181916F010E948703FFEFEF1AFF0A11
:100A400088E0E816F10461F7CE01DF91CF911F91A4
:100A50000F91FF90EF90DF90CF900C94AE04B8010F
:100A600084E0759567958A95E1F7CE010E94C404EC
:100A70006F2DCE01DF91CF911F910F91FF90EF90DD
:100A8000DF90CF900C94C40440E0682F88E592E09A
:100A90000C94F104E8E5F2E08089982F9460908B43
:100AA0008C600C944405CF93DF93823029F49091AD
:100AB000670298609093670280936B0210926C02B9
:100AC00080E480936D0280E180936E0280E58093E4
:100AD0006F0280915C020E948D0080915D028F3FC9
:100AE00011F00E948D0080915E020E948D00C8E589
:100AF000D2E09E01285532408091670284FD0AC0F1
:100B000084E090E02196281739073CF48E810E94FA
:100B10008D00EFCF88E090E0F5CF8BE39DE001976B
:100B2000F1F760E080915C020E94870360E08091B1
:100B30005E020E94870380915D028F3F19F060E0A2
:100B40000E9487038091670284FD38C063E088E5D6
:100B500092E00E94C404CBE4D6E4CE010197F1F701
:100B600063E088E592E00E94C4042197F1F763E016
:100B700088E592E00E94C40483E592E00197F1F7D2
:100B800062E088E592E00E94C4048091670280627E
:100B90000E94440584E0809368020E944A0581E037
:100BA0000E9444058BE39FE10197F1F782E0809377
:100BB000690286E0DF91CF910C94440580620E9427
:100BC00044058BE496E40197F1F780916702806217
:100BD0000E94440583E592E00197F1F78091670256
:100BE00080620E944405D1CFE8E5F2E080898B7FE6
:100BF000808B88600C94440590916B02691710F00B
:100C00006FEF690FE62FF0E0E85AFD4F9489890FE6
:100C100080680C944405EF92FF920F931F93CF933B
:100C2000DF9362E080E00E94FC0585E391E00E9492
:100C3000A1040E944A056CED75E080E090E00E94FE
:100C400006040E94F40560ED77E080E090E00E94E9
:100C500006040E943D0483EEE82E81E0F82E10E0A9
:100C600000E08091020190910301081719070CF030
:100C70004AC0F701C191D1917F0140E050E0BA0133
:100C800088EC90E0C430D105C1F040E050E0BA01FA
:100C90008CE291E0C530D10581F040E050E0BA012E
:100CA00080E991E0C230D10541F0C330D10581F433
:100CB00040E050E0BA0184EF91E00E94AC0068ECA3
:100CC00070E080E090E00E94060487E00E94B50397
:100CD00061E08C2F0E9487036091000170910101F7
:100CE000072E000C880B990B0E94060460E08C2FE5
:100CF0000E94870368EC70E080E090E00E940604A8
:100D00000F5F1F4FAECFDF91CF911F910F91FF90DB
:100D1000EF900895CF93DF9382E00E94530562E045
:100D200080E00E94FC058EE391E00E94A1040E94F5
:100D30004A0560ED77E080E090E00E9406040E94A2
:100D4000F40560ED77E080E090E00E94060481E029
:100D500090E09093750180937401C0917401D091DB
:100D60007501C730D105F4F561E083E00E94870387
:100D700064E670E080E090E00E94060460E083E0BA
:100D80000E94870361E084E00E94870364E670E0CC
:100D900080E090E00E94060460E084E00E94870307
:100DA00061E085E00E94870364E670E080E090E007
:100DB0000E94060460E085E00E94870361E082E013
:100DC0000E94870364E670E080E090E00E940604E1
:100DD00060E082E00E9487032196D0937501C09362
:100DE0007401BBCFDF91CF91089541E00E94F104DF
:100DF00081E090E008954F925F926F927F928F9280
:100E00009F92AF92BF92CF92DF92EF92FF920F9399
:100E10001F93CF93DF93CDB7DEB7A0970FB6F894AB
:100E2000DEBF0FBECDBF61E084E00E94870361E0BA
:100E300085E00E94870361E082E00E94870361E011
:100E400083E00E94870360E971E080E090E00E9407
:100E5000060460E084E00E94870360E085E00E9471
:100E6000870360E082E00E94870360E083E00E94E5
:100E700087036AEF70E080E090E00E94060480E162
:100E8000E9E0F1E0DE01519601900D928A95E1F7DB
:100E900080E1E9E1F1E0DE01119601900D928A9581
:100EA000E1F7CE0101967C018E010F5E1F4F5801C4
:100EB0002C01990F6608770898EEC92E93E0D92E79
:100EC000F701819091907F01B301A201F801819116
:100ED00091918F010E94AC00C601B4010E944E0D99
:100EE000072E000C880B990B0E94550C26E636E65F
:100EF00046EA5FE30E94B90C0E941D0C072E000C0D
:100F0000880B990B0E94060487E00E94B503EA143F
:100F1000FB04B1F682E00E94530562E080E00E948B
:100F2000FC058EE491E00E94A1040E944A0560ED58
:100F300077E080E090E00E9406040E94F40560EDF6
:100F400077E080E090E00E940604D0920101C09218
:100F50000001E0900201F09003016701F7FE03C079
:100F6000F3E0CF0ED11CD594C794D594C79401E07B
:100F700010E0C016D1060CF161E083E00E94870307
:100F800061E084E00E94870361E085E00E948703BE
:100F900061E082E00E94870360E273E080E090E01D
:100FA0000E9406040E943D046CE271E080E090E043
:100FB0000E9406040F5F1F4FDCCFC70164E070E0A2
:100FC0000E944E0D7C010E943D0481E0E816F10470
:100FD00009F073C061E083E00E94870360E273E080
:100FE00080E090E00E9406040E943D046CE271E003
:100FF00080E090E00E94060464EF71E080E090E001
:101000000E94060482E00E94530560E083E00E9493
:10101000FC058FE591E00E94A10461E084E00E945C
:10102000FC05C0900201D09003010D2C000CEE08CD
:10103000FF084AE0C701B601F7FE0EC041E06DE2CD
:1010400088E592E00E94F10466277727CB016C19AE
:101050007D098E099F094AE00E9453040E944A05B7
:1010600060ED77E080E090E00E9406040E94F405C5
:1010700060ED77E080E090E00E94060481E090E07F
:1010800090930301809302010E948A06A0960FB6F6
:10109000F894DEBF0FBECDBFDF91CF911F910F91AE
:1010A000FF90EF90DF90CF90BF90AF909F908F9088
:1010B0007F906F905F904F90089592E0E916F10451
:1010C00039F461E083E00E94870361E084E084CF2B
:1010D000E3E0EE16F10409F081CF61E083E00E94C5
:1010E000870361E084E00E94870361E085E074CFBC
:1010F0004F925F926F927F928F929F92AF92BF9228
:10110000CF92DF92EF92FF920F931F93CF93DF93D3
:1011100006E711E0C3EED1E0D12CC12C33E0432E21
:10112000512C42E0642E712C55E0852E912C64E008
:10113000A62EB12C8091020190910301C816D90608
:10114000CCF10196909303018093020182E00E940A
:10115000530562E080E00E94FC0587E691E00E9472
:10116000A1040E944A0560ED77E080E090E00E94D3
:1011700006040E94F40568EB7BE080E090E00E94AA
:1011800006046EE571E080E090E0DF91CF911F9161
:101190000F91FF90EF90DF90CF90BF90AF909F9016
:1011A0008F907F906F905F904F900C940604EF2883
:1011B00009F0C7C08FE00E945E03892B09F0C8C008
:1011C00061E083E00E94870340E050E0BA0184EFD1
:1011D00091E00E94AC006CE271E080E090E00E943F
:1011E000060487E00E94B503F8015182408268EC52
:1011F00070E080E090E00E94060488819981039766
:1012000091F0DF91CF911F910F91FF90EF90DF90C0
:10121000CF90BF90AF909F908F907F906F905F9096
:101220004F900C94FB0660E083E00E948703EE245D
:10123000E394F12C8EE00E945E03892B41F561E07E
:1012400082E00E94870340E050E0BA0180E991E02B
:101250000E94AC006CE271E080E090E00E94060425
:1012600087E00E94B503F8017182608268EC70E04B
:1012700080E090E00E94060488819981029709F637
:1012800060E082E00E948703EE24E394F12C81E188
:101290000E945E03892B49F561E085E00E94870387
:1012A00040E050E0BA018CE291E00E94AC006CE2B8
:1012B00071E080E090E00E94060487E00E94B503A0
:1012C000F8019182808268EC70E080E090E00E94FA
:1012D000060488819981059709F093CF60E085E045
:1012E0000E948703EE24E394F12C80E10E945E03C8
:1012F000892B09F05CCF61E084E00E94870340E025
:1013000050E0BA0188EC90E00E94AC006CE271E021
:1013100080E090E00E94060487E00E94B503F80197
:10132000B182A08268EC70E080E090E00E94060448
:1013300088819981049709F064CF60E084E00E947D
:101340008703FFEFCF1ADF0A0E5F1F4F2296F2CE00
:10135000F12CE12C6FCF1F920F920FB60F92112438
:101360002F933F934F935F936F937F938F939F93AD
:10137000AF93BF93EF93FF9380914C0290914D02F6
:10138000A0914E02B0914F02892B8A2B8B2BD1F169
:1013900090914702E0914802F091490280818927AB
:1013A000808380914C0290914D02A0914E02B091A9
:1013B0004F02181619061A061B069CF480914C025F
:1013C00090914D02A0914E02B0914F020197A10958
:1013D000B10980934C0290934D02A0934E02B093BA
:1013E0004F02FF91EF91BF91AF919F918F917F91AC
:1013F0006F915F914F913F912F910F900FBE0F9082
:101400001F901895809104010E94B503EACF1F92A6
:101410000F920FB60F9211242F933F938F939F93A8
:10142000AF93BF938091DB019091DC01A091DD012E
:10143000B091DE013091DA0123E0230F2D3758F50A
:101440000196A11DB11D2093DA018093DB019093D9
:10145000DC01A093DD01B093DE018091DF0190916A
:10146000E001A091E101B091E2010196A11DB11D41
:101470008093DF019093E001A093E101B093E2013A
:10148000BF91AF919F918F913F912F910F900FBE80
:101490000F901F90189526E8230F0296A11DB11DED
:1014A000D2CF789484B5826084BD84B5816084BDD8
:1014B00085B5826085BD85B5816085BD80916E00F2
:1014C000816080936E001092810080918100826023
:1014D0008093810080918100816080938100809160
:1014E00080008160809380008091B100846080934F
:1014F000B1008091B00081608093B00080917A004B
:10150000846080937A0080917A00826080937A0070
:1015100080917A00816080937A0080917A0080685F
:1015200080937A001092C10084E00E948D0085E0D3
:101530000E948D0082E00E948D0083E00E948D0059
:101540000E948A0695E4992E07E412E024E0C22E58
:10155000D12CE12CF12CC0E0D0E0809102019091DF
:1015600003010197A9F590927C0080917A00806434
:1015700080937A0080917A0086FDFCCF809178007C
:1015800060917900762F682F072E000C880B990B3D
:10159000611571058105910511F00E94B10B83EE73
:1015A000A82E81E0B82E0E94620BA70196010E942E
:1015B000BA0B6E5F7F4F8F4F9F4FF5016193719311
:1015C0005F010E171F0779F70E940B060E9478082B
:1015D0008091020190910301019721F00E940B0676
:1015E0000E947808209709F4B8CF0E940000B5CF78
:1015F000E8E5F2E0138212828DE291E0918380832C
:1016000087E084838FEF858386E0868385E0878308
:1016100084E0808783E0818782E082871386148656
:1016200015861686178681E00C9453058F929F923B
:10163000AF92BF92CF92DF92EF92FF92CF93DF9360
:10164000EC01688179818A819B8161157105810531
:10165000910521F464E279ED8BE597E02DE133EF1C
:1016600041E050E00E94BA0B49015A019B01AC01D4
:10167000A7EAB1E40E94D90B6B017C01ACEEB4EF98
:10168000A50194010E94E70BC60ED71EE81EF91EA5
:10169000F7FE06C081E0C81AD108E10880E8F80A20
:1016A000C882D982EA82FB82C701B6019F77DF91A7
:1016B000CF91FF90EF90DF90CF90BF90AF909F9031
:1016C0008F9008958F929F92AF92BF92CF92DF92A8
:1016D000EF92FF92609105017091060180910701E0
:1016E00090910801611571058105910521F464E26D
:1016F00079ED8BE597E02DE133EF41E050E00E947A
:10170000BA0B49015A019B01AC01A7EAB1E40E945E
:10171000D90B6B017C01ACEEB4EFA50194010E94E2
:10172000E70BC60ED71EE81EF91EF7FE06C081E0C5
:10173000C81AD108E10880E8F80AC0920501D092E1
:101740000601E0920701F0920801C701B6019F77F8
:10175000FF90EF90DF90CF90BF90AF909F908F90D1
:10176000089560930501709306018093070190939B
:1017700008010895052E97FB1EF400940E94D10BDA
:1017800057FD07D00E94EC0B07FC03D04EF40C94DD
:10179000D10B50954095309521953F4F4F4F5F4F5E
:1017A000089590958095709561957F4F8F4F9F4FCD
:1017B00008950E940E0CA59F900DB49F900DA49FBC
:1017C000800D911D11240895B7FF0C94D90B0E9430
:1017D000D90B821B930B0895A1E21A2EAA1BBB1BE7
:1017E000FD010DC0AA1FBB1FEE1FFF1FA217B307ED
:1017F000E407F50720F0A21BB30BE40BF50B661F03
:10180000771F881F991F1A9469F7609570958095C6
:1018100090959B01AC01BD01CF010895A29FB0013D
:10182000B39FC001A39F700D811D1124911DB29F14
:10183000700D811D1124911D08950E94240C68943F
:10184000B1110C94B30C08950E94980C88F09F5726
:1018500098F0B92F9927B751B0F0E1F0660F771FD4
:10186000881F991F1AF0BA95C9F714C0B13091F0CA
:101870000E94B20CB1E008950C94B20C672F782F3F
:101880008827B85F39F0B93FCCF38695779567958F
:10189000B395D9F73EF490958095709561957F4FFB
:1018A0008F4F9F4F0895E89409C097FB3EF49095A1
:1018B0008095709561957F4F8F4F9F4F9923A9F029
:1018C000F92F96E9BB279395F695879577956795B8
:1018D000B795F111F8CFFAF4BB0F11F460FF1BC0FC
:1018E0006F5F7F4F8F4F9F4F16C0882311F096E98F
:1018F00011C0772321F09EE8872F762F05C066233D
:1019000071F096E8862F70E060E02AF09A95660FF5
:10191000771F881FDAF7880F9695879597F90895AE
:1019200057FD9058440F551F59F05F3F71F0479590
:10193000880F97FB991F61F09F3F79F08795089575
:10194000121613061406551FF2CF4695F1DF08C094
:10195000161617061806991FF1CF869571056105B1
:1019600008940895E894BB2766277727CB0197F959
:1019700008950E94CC0C0C943D0D0E942F0D38F060
:101980000E94360D20F0952311F00C94260D0C9436
:101990002C0D11240C94B30C0E94900C70F3959FA5
:1019A000C1F3950F50E0551F629FF001729FBB2756
:1019B000F00DB11D639FAA27F00DB11DAA1F649FF2
:1019C0006627B00DA11D661F829F2227B00DA11DA5
:1019D000621F739FB00DA11D621F839FA00D611D2B
:1019E000221F749F3327A00D611D231F849F600D4C
:1019F000211D822F762F6A2F11249F5750409AF075
:101A0000F1F088234AF0EE0FFF1FBB1F661F771F00
:101A1000881F91505040A9F79E3F510580F00C94CB
:101A2000260D0C94B30C5F3FE4F3983ED4F38695F7
:101A300077956795B795F795E7959F5FC1F7FE2B6B
:101A4000880F911D9695879597F9089597F99F6747
:101A500080E870E060E008959FEF80EC0895002436
:101A60000A941616170618060906089500240A9403
:101A700012161306140605060895092E0394000C89
:101A800011F4882352F0BB0F40F4BF2B11F460FF18
:101A900004C06F5F7F4F8F4F9F4F089597FB072EB6
:101AA00016F4009407D077FD09D00E94620D07FC60
:101AB00005D03EF4909581959F4F0895709561955E
:101AC0007F4F0895AA1BBB1B51E107C0AA1FBB1F74
:101AD000A617B70710F0A61BB70B881F991F5A95BA
:101AE000A9F780959095BC01CD010895EE0FFF1FD9
:0C1AF0000590F491E02D0994F894FFCFCC
:101AFC00F4010100FF010000000401C800C800DC73
:101B0C0000C8000000FA00040104000800080004EA
:101B1C0000040004000400040000000000F50608A6
:101B2C00033A04390420212079612021200021214D
:101B3C00212077656C636F6D6520212121002121A7
:101B4C002120796F75206C6F737420212121006E18
:101B5C006976656C3A2000C2A120796F752077698F
:041B6C006E202100C6
:00000001FF
